{
  "address": "0xe7f1725E7734CE288F8367e1Bb143E90bb3F0512",
  "abi": [
    {
      "inputs": [
        {
          "internalType": "address",
          "name": "priceFeedAddress",
          "type": "address"
        }
      ],
      "stateMutability": "nonpayable",
      "type": "constructor"
    },
    {
      "inputs": [],
      "name": "NotOwner",
      "type": "error"
    },
    {
      "stateMutability": "payable",
      "type": "fallback"
    },
    {
      "inputs": [],
      "name": "MINIMUM_USD",
      "outputs": [
        {
          "internalType": "uint256",
          "name": "",
          "type": "uint256"
        }
      ],
      "stateMutability": "view",
      "type": "function"
    },
    {
      "inputs": [
        {
          "internalType": "address",
          "name": "",
          "type": "address"
        }
      ],
      "name": "addressToAmountFunded",
      "outputs": [
        {
          "internalType": "uint256",
          "name": "",
          "type": "uint256"
        }
      ],
      "stateMutability": "view",
      "type": "function"
    },
    {
      "inputs": [],
      "name": "fund",
      "outputs": [],
      "stateMutability": "payable",
      "type": "function"
    },
    {
      "inputs": [
        {
          "internalType": "uint256",
          "name": "",
          "type": "uint256"
        }
      ],
      "name": "funders",
      "outputs": [
        {
          "internalType": "address",
          "name": "",
          "type": "address"
        }
      ],
      "stateMutability": "view",
      "type": "function"
    },
    {
      "inputs": [],
      "name": "i_owner",
      "outputs": [
        {
          "internalType": "address",
          "name": "",
          "type": "address"
        }
      ],
      "stateMutability": "view",
      "type": "function"
    },
    {
      "inputs": [],
      "name": "priceFeed",
      "outputs": [
        {
          "internalType": "contract AggregatorV3Interface",
          "name": "",
          "type": "address"
        }
      ],
      "stateMutability": "view",
      "type": "function"
    },
    {
      "inputs": [],
      "name": "withdraw",
      "outputs": [],
      "stateMutability": "nonpayable",
      "type": "function"
    },
    {
      "stateMutability": "payable",
      "type": "receive"
    }
  ],
  "transactionHash": "0xf69bc4fe9a3993fb4c4753ca0c00ce2698fc38c0ec30825cac6d1933666c67fc",
  "args": [
    "0x5FbDB2315678afecb367f032d93F642f64180aa3"
  ],
  "numDeployments": 1,
  "solcInputHash": "4ce7004a3f71a4a654a83e18eb181223",
  "bytecode": "0x60a06040523480156200001157600080fd5b506040516200112b3803806200112b83398181016040528101906200003791906200011d565b3373ffffffffffffffffffffffffffffffffffffffff1660808173ffffffffffffffffffffffffffffffffffffffff168152505080600260006101000a81548173ffffffffffffffffffffffffffffffffffffffff021916908373ffffffffffffffffffffffffffffffffffffffff160217905550506200014f565b600080fd5b600073ffffffffffffffffffffffffffffffffffffffff82169050919050565b6000620000e582620000b8565b9050919050565b620000f781620000d8565b81146200010357600080fd5b50565b6000815190506200011781620000ec565b92915050565b600060208284031215620001365762000135620000b3565b5b6000620001468482850162000106565b91505092915050565b608051610fb2620001796000396000818161031e015281816103ac01526106370152610fb26000f3fe6080604052600436106100745760003560e01c8063741bef1a1161004e578063741bef1a1461010c578063b60d428814610137578063dba6335f14610141578063dc0d3dff1461016c57610083565b80633ccfd60b1461008d5780633e47d6f3146100a45780636b69a592146100e157610083565b36610083576100816101a9565b005b61008b6101a9565b005b34801561009957600080fd5b506100a261031c565b005b3480156100b057600080fd5b506100cb60048036038101906100c6919061087e565b6105ea565b6040516100d891906108c4565b60405180910390f35b3480156100ed57600080fd5b506100f6610602565b60405161010391906108c4565b60405180910390f35b34801561011857600080fd5b5061012161060f565b60405161012e919061093e565b60405180910390f35b61013f6101a9565b005b34801561014d57600080fd5b50610156610635565b6040516101639190610968565b60405180910390f35b34801561017857600080fd5b50610193600480360381019061018e91906109af565b610659565b6040516101a09190610968565b60405180910390f35b6802b5e3af16b18800006101e8600260009054906101000a900473ffffffffffffffffffffffffffffffffffffffff163461069890919063ffffffff16565b1015610229576040517f08c379a000000000000000000000000000000000000000000000000000000000815260040161022090610a39565b60405180910390fd5b6000339080600181540180825580915050600190039060005260206000200160009091909190916101000a81548173ffffffffffffffffffffffffffffffffffffffff021916908373ffffffffffffffffffffffffffffffffffffffff16021790555034600160003373ffffffffffffffffffffffffffffffffffffffff1673ffffffffffffffffffffffffffffffffffffffff168152602001908152602001600020546102d79190610a88565b600160003373ffffffffffffffffffffffffffffffffffffffff1673ffffffffffffffffffffffffffffffffffffffff16815260200190815260200160002081905550565b7f000000000000000000000000000000000000000000000000000000000000000073ffffffffffffffffffffffffffffffffffffffff163373ffffffffffffffffffffffffffffffffffffffff16146103aa576040517f08c379a00000000000000000000000000000000000000000000000000000000081526004016103a190610b2a565b60405180910390fd5b7f000000000000000000000000000000000000000000000000000000000000000073ffffffffffffffffffffffffffffffffffffffff163373ffffffffffffffffffffffffffffffffffffffff161461042f576040517f30cd747100000000000000000000000000000000000000000000000000000000815260040160405180910390fd5b60005b6000805490508110156104da57600080828154811061045457610453610b4a565b5b9060005260206000200160009054906101000a900473ffffffffffffffffffffffffffffffffffffffff1690506000600160008373ffffffffffffffffffffffffffffffffffffffff1673ffffffffffffffffffffffffffffffffffffffff168152602001908152602001600020819055505080806104d290610b79565b915050610432565b50600067ffffffffffffffff8111156104f6576104f5610bc2565b5b6040519080825280602002602001820160405280156105245781602001602082028036833780820191505090505b506000908051906020019061053a929190610774565b5060003373ffffffffffffffffffffffffffffffffffffffff164760405161056190610c22565b60006040518083038185875af1925050503d806000811461059e576040519150601f19603f3d011682016040523d82523d6000602084013e6105a3565b606091505b50509050806105e7576040517f08c379a00000000000000000000000000000000000000000000000000000000081526004016105de90610c83565b60405180910390fd5b50565b60016020528060005260406000206000915090505481565b6802b5e3af16b188000081565b600260009054906101000a900473ffffffffffffffffffffffffffffffffffffffff1681565b7f000000000000000000000000000000000000000000000000000000000000000081565b6000818154811061066957600080fd5b906000526020600020016000915054906101000a900473ffffffffffffffffffffffffffffffffffffffff1681565b6000806106a4836106d4565b90506000670de0b6b3a764000085836106bd9190610ca3565b6106c79190610d2c565b9050809250505092915050565b6000808273ffffffffffffffffffffffffffffffffffffffff1663feaf968c6040518163ffffffff1660e01b815260040160a06040518083038186803b15801561071d57600080fd5b505afa158015610731573d6000803e3d6000fd5b505050506040513d601f19601f820116820180604052508101906107559190610dea565b5050509150506402540be4008161076c9190610e65565b915050919050565b8280548282559060005260206000209081019282156107ed579160200282015b828111156107ec5782518260006101000a81548173ffffffffffffffffffffffffffffffffffffffff021916908373ffffffffffffffffffffffffffffffffffffffff16021790555091602001919060010190610794565b5b5090506107fa91906107fe565b5090565b5b808211156108175760008160009055506001016107ff565b5090565b600080fd5b600073ffffffffffffffffffffffffffffffffffffffff82169050919050565b600061084b82610820565b9050919050565b61085b81610840565b811461086657600080fd5b50565b60008135905061087881610852565b92915050565b6000602082840312156108945761089361081b565b5b60006108a284828501610869565b91505092915050565b6000819050919050565b6108be816108ab565b82525050565b60006020820190506108d960008301846108b5565b92915050565b6000819050919050565b60006109046108ff6108fa84610820565b6108df565b610820565b9050919050565b6000610916826108e9565b9050919050565b60006109288261090b565b9050919050565b6109388161091d565b82525050565b6000602082019050610953600083018461092f565b92915050565b61096281610840565b82525050565b600060208201905061097d6000830184610959565b92915050565b61098c816108ab565b811461099757600080fd5b50565b6000813590506109a981610983565b92915050565b6000602082840312156109c5576109c461081b565b5b60006109d38482850161099a565b91505092915050565b600082825260208201905092915050565b7f4469646e7427742073656e6420656e6f75676800000000000000000000000000600082015250565b6000610a236013836109dc565b9150610a2e826109ed565b602082019050919050565b60006020820190508181036000830152610a5281610a16565b9050919050565b7f4e487b7100000000000000000000000000000000000000000000000000000000600052601160045260246000fd5b6000610a93826108ab565b9150610a9e836108ab565b9250827fffffffffffffffffffffffffffffffffffffffffffffffffffffffffffffffff03821115610ad357610ad2610a59565b5b828201905092915050565b7f53656e646572206973206e6f74206f776e657221000000000000000000000000600082015250565b6000610b146014836109dc565b9150610b1f82610ade565b602082019050919050565b60006020820190508181036000830152610b4381610b07565b9050919050565b7f4e487b7100000000000000000000000000000000000000000000000000000000600052603260045260246000fd5b6000610b84826108ab565b91507fffffffffffffffffffffffffffffffffffffffffffffffffffffffffffffffff821415610bb757610bb6610a59565b5b600182019050919050565b7f4e487b7100000000000000000000000000000000000000000000000000000000600052604160045260246000fd5b600081905092915050565b50565b6000610c0c600083610bf1565b9150610c1782610bfc565b600082019050919050565b6000610c2d82610bff565b9150819050919050565b7f43616c6c206661696c6564210000000000000000000000000000000000000000600082015250565b6000610c6d600c836109dc565b9150610c7882610c37565b602082019050919050565b60006020820190508181036000830152610c9c81610c60565b9050919050565b6000610cae826108ab565b9150610cb9836108ab565b9250817fffffffffffffffffffffffffffffffffffffffffffffffffffffffffffffffff0483118215151615610cf257610cf1610a59565b5b828202905092915050565b7f4e487b7100000000000000000000000000000000000000000000000000000000600052601260045260246000fd5b6000610d37826108ab565b9150610d42836108ab565b925082610d5257610d51610cfd565b5b828204905092915050565b600069ffffffffffffffffffff82169050919050565b610d7c81610d5d565b8114610d8757600080fd5b50565b600081519050610d9981610d73565b92915050565b6000819050919050565b610db281610d9f565b8114610dbd57600080fd5b50565b600081519050610dcf81610da9565b92915050565b600081519050610de481610983565b92915050565b600080600080600060a08688031215610e0657610e0561081b565b5b6000610e1488828901610d8a565b9550506020610e2588828901610dc0565b9450506040610e3688828901610dd5565b9350506060610e4788828901610dd5565b9250506080610e5888828901610d8a565b9150509295509295909350565b6000610e7082610d9f565b9150610e7b83610d9f565b9250827f7fffffffffffffffffffffffffffffffffffffffffffffffffffffffffffffff0482116000841360008413161615610eba57610eb9610a59565b5b817f80000000000000000000000000000000000000000000000000000000000000000583126000841260008413161615610ef757610ef6610a59565b5b827f80000000000000000000000000000000000000000000000000000000000000000582126000841360008412161615610f3457610f33610a59565b5b827f7fffffffffffffffffffffffffffffffffffffffffffffffffffffffffffffff0582126000841260008412161615610f7157610f70610a59565b5b82820290509291505056fea264697066735822122080ead4bedf50bef386f973fce0b4382f7eefa47a239298036a2c84ef7fa6121e64736f6c63430008090033",
  "devdoc": {
    "kind": "dev",
    "methods": {},
    "version": 1
  },
  "userdoc": {
    "kind": "user",
    "methods": {},
    "version": 1
  },
  "storageLayout": {
    "storage": [
      {
        "astId": 62,
        "contract": "contracts/FundMe.sol:FundMe",
        "label": "funders",
        "offset": 0,
        "slot": "0",
        "type": "t_array(t_address)dyn_storage"
      },
      {
        "astId": 66,
        "contract": "contracts/FundMe.sol:FundMe",
        "label": "addressToAmountFunded",
        "offset": 0,
        "slot": "1",
        "type": "t_mapping(t_address,t_uint256)"
      },
      {
        "astId": 71,
        "contract": "contracts/FundMe.sol:FundMe",
        "label": "priceFeed",
        "offset": 0,
        "slot": "2",
        "type": "t_contract(AggregatorV3Interface)45"
      }
    ],
    "types": {
      "t_address": {
        "encoding": "inplace",
        "label": "address",
        "numberOfBytes": "20"
      },
      "t_array(t_address)dyn_storage": {
        "base": "t_address",
        "encoding": "dynamic_array",
        "label": "address[]",
        "numberOfBytes": "32"
      },
      "t_contract(AggregatorV3Interface)45": {
        "encoding": "inplace",
        "label": "contract AggregatorV3Interface",
        "numberOfBytes": "20"
      },
      "t_mapping(t_address,t_uint256)": {
        "encoding": "mapping",
        "key": "t_address",
        "label": "mapping(address => uint256)",
        "numberOfBytes": "32",
        "value": "t_uint256"
      },
      "t_uint256": {
        "encoding": "inplace",
        "label": "uint256",
        "numberOfBytes": "32"
      }
    }
  }
}