{
  "address": "0x4E8978A8b0A2CaE7e30c1794126331BAC3Dd718B",
  "abi": [
    {
      "inputs": [
        {
          "internalType": "address",
          "name": "priceFeedAddress",
          "type": "address"
        }
      ],
      "stateMutability": "nonpayable",
      "type": "constructor"
    },
    {
      "inputs": [],
      "name": "FundMe__NotOwner",
      "type": "error"
    },
    {
      "inputs": [],
      "name": "MINIMUM_USD",
      "outputs": [
        {
          "internalType": "uint256",
          "name": "",
          "type": "uint256"
        }
      ],
      "stateMutability": "view",
      "type": "function"
    },
    {
      "inputs": [],
      "name": "cheaperWithdraw",
      "outputs": [],
      "stateMutability": "payable",
      "type": "function"
    },
    {
      "inputs": [],
      "name": "fund",
      "outputs": [],
      "stateMutability": "payable",
      "type": "function"
    },
    {
      "inputs": [
        {
          "internalType": "address",
          "name": "funder",
          "type": "address"
        }
      ],
      "name": "getAddressToAmountFunded",
      "outputs": [
        {
          "internalType": "uint256",
          "name": "",
          "type": "uint256"
        }
      ],
      "stateMutability": "view",
      "type": "function"
    },
    {
      "inputs": [
        {
          "internalType": "uint256",
          "name": "index",
          "type": "uint256"
        }
      ],
      "name": "getFunder",
      "outputs": [
        {
          "internalType": "address",
          "name": "",
          "type": "address"
        }
      ],
      "stateMutability": "view",
      "type": "function"
    },
    {
      "inputs": [],
      "name": "getOwner",
      "outputs": [
        {
          "internalType": "address",
          "name": "",
          "type": "address"
        }
      ],
      "stateMutability": "view",
      "type": "function"
    },
    {
      "inputs": [],
      "name": "getPriceFeed",
      "outputs": [
        {
          "internalType": "contract AggregatorV3Interface",
          "name": "",
          "type": "address"
        }
      ],
      "stateMutability": "view",
      "type": "function"
    },
    {
      "inputs": [
        {
          "internalType": "uint256",
          "name": "",
          "type": "uint256"
        }
      ],
      "name": "s_funders",
      "outputs": [
        {
          "internalType": "address",
          "name": "",
          "type": "address"
        }
      ],
      "stateMutability": "view",
      "type": "function"
    },
    {
      "inputs": [],
      "name": "s_priceFeed",
      "outputs": [
        {
          "internalType": "contract AggregatorV3Interface",
          "name": "",
          "type": "address"
        }
      ],
      "stateMutability": "view",
      "type": "function"
    },
    {
      "inputs": [],
      "name": "withdraw",
      "outputs": [],
      "stateMutability": "nonpayable",
      "type": "function"
    }
  ],
  "transactionHash": "0x91f54a4904a98ba096f529a3dc810c4a84b4ceb7c2906d1f88b367cccfab845f",
  "args": [
    "0x8A753747A1Fa494EC906cE90E9f37563A8AF630e"
  ],
  "numDeployments": 6,
  "solcInputHash": "6b8e89c034e5289ef0b17256c28152da",
  "bytecode": "0x60a06040523480156200001157600080fd5b50604051620013f6380380620013f683398181016040528101906200003791906200011d565b3373ffffffffffffffffffffffffffffffffffffffff1660808173ffffffffffffffffffffffffffffffffffffffff168152505080600260006101000a81548173ffffffffffffffffffffffffffffffffffffffff021916908373ffffffffffffffffffffffffffffffffffffffff160217905550506200014f565b600080fd5b600073ffffffffffffffffffffffffffffffffffffffff82169050919050565b6000620000e582620000b8565b9050919050565b620000f781620000d8565b81146200010357600080fd5b50565b6000815190506200011781620000ec565b92915050565b600060208284031215620001365762000135620000b3565b5b6000620001468482850162000106565b91505092915050565b60805161127d62000179600039600081816102950152818161052301526106e6015261127d6000f3fe6080604052600436106100915760003560e01c8063893d20e811610059578063893d20e81461017d5780639e87a5cd146101a8578063b60d4288146101d3578063be2693f0146101dd578063d7b4750c146101e757610091565b80630343fb25146100965780630ec3b027146100d35780633ccfd60b146100fe57806354861af7146101155780636b69a59214610152575b600080fd5b3480156100a257600080fd5b506100bd60048036038101906100b89190610bb5565b610224565b6040516100ca9190610bfb565b60405180910390f35b3480156100df57600080fd5b506100e861026d565b6040516100f59190610c75565b60405180910390f35b34801561010a57600080fd5b50610113610293565b005b34801561012157600080fd5b5061013c60048036038101906101379190610cbc565b6104d3565b6040516101499190610cf8565b60405180910390f35b34801561015e57600080fd5b50610167610512565b6040516101749190610bfb565b60405180910390f35b34801561018957600080fd5b5061019261051f565b60405161019f9190610cf8565b60405180910390f35b3480156101b457600080fd5b506101bd610547565b6040516101ca9190610c75565b60405180910390f35b6101db610571565b005b6101e56106e4565b005b3480156101f357600080fd5b5061020e60048036038101906102099190610cbc565b610988565b60405161021b9190610cf8565b60405180910390f35b6000600160008373ffffffffffffffffffffffffffffffffffffffff1673ffffffffffffffffffffffffffffffffffffffff168152602001908152602001600020549050919050565b600260009054906101000a900473ffffffffffffffffffffffffffffffffffffffff1681565b7f000000000000000000000000000000000000000000000000000000000000000073ffffffffffffffffffffffffffffffffffffffff163373ffffffffffffffffffffffffffffffffffffffff1614610318576040517f579610db00000000000000000000000000000000000000000000000000000000815260040160405180910390fd5b60005b6000805490508110156103c357600080828154811061033d5761033c610d13565b5b9060005260206000200160009054906101000a900473ffffffffffffffffffffffffffffffffffffffff1690506000600160008373ffffffffffffffffffffffffffffffffffffffff1673ffffffffffffffffffffffffffffffffffffffff168152602001908152602001600020819055505080806103bb90610d71565b91505061031b565b50600067ffffffffffffffff8111156103df576103de610dba565b5b60405190808252806020026020018201604052801561040d5781602001602082028036833780820191505090505b5060009080519060200190610423929190610aab565b5060003373ffffffffffffffffffffffffffffffffffffffff164760405161044a90610e1a565b60006040518083038185875af1925050503d8060008114610487576040519150601f19603f3d011682016040523d82523d6000602084013e61048c565b606091505b50509050806104d0576040517f08c379a00000000000000000000000000000000000000000000000000000000081526004016104c790610e8c565b60405180910390fd5b50565b600081815481106104e357600080fd5b906000526020600020016000915054906101000a900473ffffffffffffffffffffffffffffffffffffffff1681565b6802b5e3af16b188000081565b60007f0000000000000000000000000000000000000000000000000000000000000000905090565b6000600260009054906101000a900473ffffffffffffffffffffffffffffffffffffffff16905090565b6802b5e3af16b18800006105b0600260009054906101000a900473ffffffffffffffffffffffffffffffffffffffff16346109cf90919063ffffffff16565b10156105f1576040517f08c379a00000000000000000000000000000000000000000000000000000000081526004016105e890610ef8565b60405180910390fd5b6000339080600181540180825580915050600190039060005260206000200160009091909190916101000a81548173ffffffffffffffffffffffffffffffffffffffff021916908373ffffffffffffffffffffffffffffffffffffffff16021790555034600160003373ffffffffffffffffffffffffffffffffffffffff1673ffffffffffffffffffffffffffffffffffffffff1681526020019081526020016000205461069f9190610f18565b600160003373ffffffffffffffffffffffffffffffffffffffff1673ffffffffffffffffffffffffffffffffffffffff16815260200190815260200160002081905550565b7f000000000000000000000000000000000000000000000000000000000000000073ffffffffffffffffffffffffffffffffffffffff163373ffffffffffffffffffffffffffffffffffffffff1614610769576040517f579610db00000000000000000000000000000000000000000000000000000000815260040160405180910390fd5b6000808054806020026020016040519081016040528092919081815260200182805480156107ec57602002820191906000526020600020905b8160009054906101000a900473ffffffffffffffffffffffffffffffffffffffff1673ffffffffffffffffffffffffffffffffffffffff16815260200190600101908083116107a2575b5050505050905060005b815181101561087757600082828151811061081457610813610d13565b5b602002602001015190506000600160008373ffffffffffffffffffffffffffffffffffffffff1673ffffffffffffffffffffffffffffffffffffffff1681526020019081526020016000208190555050808061086f90610d71565b9150506107f6565b50600067ffffffffffffffff81111561089357610892610dba565b5b6040519080825280602002602001820160405280156108c15781602001602082028036833780820191505090505b50600090805190602001906108d7929190610aab565b5060003373ffffffffffffffffffffffffffffffffffffffff16476040516108fe90610e1a565b60006040518083038185875af1925050503d806000811461093b576040519150601f19603f3d011682016040523d82523d6000602084013e610940565b606091505b5050905080610984576040517f08c379a000000000000000000000000000000000000000000000000000000000815260040161097b90610e8c565b60405180910390fd5b5050565b600080828154811061099d5761099c610d13565b5b9060005260206000200160009054906101000a900473ffffffffffffffffffffffffffffffffffffffff169050919050565b6000806109db83610a0b565b90506000670de0b6b3a764000085836109f49190610f6e565b6109fe9190610ff7565b9050809250505092915050565b6000808273ffffffffffffffffffffffffffffffffffffffff1663feaf968c6040518163ffffffff1660e01b815260040160a06040518083038186803b158015610a5457600080fd5b505afa158015610a68573d6000803e3d6000fd5b505050506040513d601f19601f82011682018060405250810190610a8c91906110b5565b5050509150506402540be40081610aa39190611130565b915050919050565b828054828255906000526020600020908101928215610b24579160200282015b82811115610b235782518260006101000a81548173ffffffffffffffffffffffffffffffffffffffff021916908373ffffffffffffffffffffffffffffffffffffffff16021790555091602001919060010190610acb565b5b509050610b319190610b35565b5090565b5b80821115610b4e576000816000905550600101610b36565b5090565b600080fd5b600073ffffffffffffffffffffffffffffffffffffffff82169050919050565b6000610b8282610b57565b9050919050565b610b9281610b77565b8114610b9d57600080fd5b50565b600081359050610baf81610b89565b92915050565b600060208284031215610bcb57610bca610b52565b5b6000610bd984828501610ba0565b91505092915050565b6000819050919050565b610bf581610be2565b82525050565b6000602082019050610c106000830184610bec565b92915050565b6000819050919050565b6000610c3b610c36610c3184610b57565b610c16565b610b57565b9050919050565b6000610c4d82610c20565b9050919050565b6000610c5f82610c42565b9050919050565b610c6f81610c54565b82525050565b6000602082019050610c8a6000830184610c66565b92915050565b610c9981610be2565b8114610ca457600080fd5b50565b600081359050610cb681610c90565b92915050565b600060208284031215610cd257610cd1610b52565b5b6000610ce084828501610ca7565b91505092915050565b610cf281610b77565b82525050565b6000602082019050610d0d6000830184610ce9565b92915050565b7f4e487b7100000000000000000000000000000000000000000000000000000000600052603260045260246000fd5b7f4e487b7100000000000000000000000000000000000000000000000000000000600052601160045260246000fd5b6000610d7c82610be2565b91507fffffffffffffffffffffffffffffffffffffffffffffffffffffffffffffffff821415610daf57610dae610d42565b5b600182019050919050565b7f4e487b7100000000000000000000000000000000000000000000000000000000600052604160045260246000fd5b600081905092915050565b50565b6000610e04600083610de9565b9150610e0f82610df4565b600082019050919050565b6000610e2582610df7565b9150819050919050565b600082825260208201905092915050565b7f43616c6c206661696c6564210000000000000000000000000000000000000000600082015250565b6000610e76600c83610e2f565b9150610e8182610e40565b602082019050919050565b60006020820190508181036000830152610ea581610e69565b9050919050565b7f4469646e7427742073656e6420656e6f75676800000000000000000000000000600082015250565b6000610ee2601383610e2f565b9150610eed82610eac565b602082019050919050565b60006020820190508181036000830152610f1181610ed5565b9050919050565b6000610f2382610be2565b9150610f2e83610be2565b9250827fffffffffffffffffffffffffffffffffffffffffffffffffffffffffffffffff03821115610f6357610f62610d42565b5b828201905092915050565b6000610f7982610be2565b9150610f8483610be2565b9250817fffffffffffffffffffffffffffffffffffffffffffffffffffffffffffffffff0483118215151615610fbd57610fbc610d42565b5b828202905092915050565b7f4e487b7100000000000000000000000000000000000000000000000000000000600052601260045260246000fd5b600061100282610be2565b915061100d83610be2565b92508261101d5761101c610fc8565b5b828204905092915050565b600069ffffffffffffffffffff82169050919050565b61104781611028565b811461105257600080fd5b50565b6000815190506110648161103e565b92915050565b6000819050919050565b61107d8161106a565b811461108857600080fd5b50565b60008151905061109a81611074565b92915050565b6000815190506110af81610c90565b92915050565b600080600080600060a086880312156110d1576110d0610b52565b5b60006110df88828901611055565b95505060206110f08882890161108b565b9450506040611101888289016110a0565b9350506060611112888289016110a0565b925050608061112388828901611055565b9150509295509295909350565b600061113b8261106a565b91506111468361106a565b9250827f7fffffffffffffffffffffffffffffffffffffffffffffffffffffffffffffff048211600084136000841316161561118557611184610d42565b5b817f800000000000000000000000000000000000000000000000000000000000000005831260008412600084131616156111c2576111c1610d42565b5b827f800000000000000000000000000000000000000000000000000000000000000005821260008413600084121616156111ff576111fe610d42565b5b827f7fffffffffffffffffffffffffffffffffffffffffffffffffffffffffffffff058212600084126000841216161561123c5761123b610d42565b5b82820290509291505056fea26469706673582212201cf80d2818f70d474d9f49672b89ef9a7ce4fdb52cf361232f07690c153affb964736f6c63430008090033",
  "devdoc": {
    "author": "Alex Yun",
    "details": "This implements price feeds as our library",
    "kind": "dev",
    "methods": {
      "fund()": {
        "details": "This implements price feeds as our library"
      }
    },
    "title": "A contract for crowdfunding",
    "version": 1
  },
  "userdoc": {
    "kind": "user",
    "methods": {
      "fund()": {
        "notice": "This function fund the contract"
      }
    },
    "notice": "This contract is to demo a sample funding contract",
    "version": 1
  },
  "storageLayout": {
    "storage": [
      {
        "astId": 63,
        "contract": "contracts/FundMe.sol:FundMe",
        "label": "s_funders",
        "offset": 0,
        "slot": "0",
        "type": "t_array(t_address)dyn_storage"
      },
      {
        "astId": 67,
        "contract": "contracts/FundMe.sol:FundMe",
        "label": "s_addressToAmountFunded",
        "offset": 0,
        "slot": "1",
        "type": "t_mapping(t_address,t_uint256)"
      },
      {
        "astId": 72,
        "contract": "contracts/FundMe.sol:FundMe",
        "label": "s_priceFeed",
        "offset": 0,
        "slot": "2",
        "type": "t_contract(AggregatorV3Interface)45"
      }
    ],
    "types": {
      "t_address": {
        "encoding": "inplace",
        "label": "address",
        "numberOfBytes": "20"
      },
      "t_array(t_address)dyn_storage": {
        "base": "t_address",
        "encoding": "dynamic_array",
        "label": "address[]",
        "numberOfBytes": "32"
      },
      "t_contract(AggregatorV3Interface)45": {
        "encoding": "inplace",
        "label": "contract AggregatorV3Interface",
        "numberOfBytes": "20"
      },
      "t_mapping(t_address,t_uint256)": {
        "encoding": "mapping",
        "key": "t_address",
        "label": "mapping(address => uint256)",
        "numberOfBytes": "32",
        "value": "t_uint256"
      },
      "t_uint256": {
        "encoding": "inplace",
        "label": "uint256",
        "numberOfBytes": "32"
      }
    }
  }
}